{
  "transactions": [
    {
      "hash": "0x981e1b1669c93abf90a49c91c525eff8871c4b7f78a53842da2719ede5626a2a",
      "transactionType": "CALL",
      "contractName": null,
      "contractAddress": "0x2ea4afc758a629946aae4c6a106156fd88cce889",
      "function": "approve(address,uint256)",
      "arguments": [
        "0x368ec5615143676f245510faE0fd97eE000aaA80",
        "1000"
      ],
      "transaction": {
        "from": "0x3ba68c32e638fd415e6387c4c7394ddd031c2a34",
        "to": "0x2ea4afc758a629946aae4c6a106156fd88cce889",
        "gas": "0x10634",
        "value": "0x0",
        "input": "0x095ea7b3000000000000000000000000368ec5615143676f245510fae0fd97ee000aaa8000000000000000000000000000000000000000000000000000000000000003e8",
        "nonce": "0x4e",
        "chainId": "0x14a34"
      },
      "additionalContracts": [],
      "isFixedGasLimit": false
    },
    {
      "hash": "0x9ebd0e8ac61f26a2c141abfe6211e5b594dc3b2346800c7e04eb5e99c42d1cbf",
      "transactionType": "CALL",
      "contractName": null,
      "contractAddress": "0x368ec5615143676f245510fae0fd97ee000aaa80",
      "function": "sellTokenFromSale(address,uint256)",
      "arguments": [
        "0x2eA4aFC758A629946AaE4C6a106156fd88ccE889",
        "1000"
      ],
      "transaction": {
        "from": "0x3ba68c32e638fd415e6387c4c7394ddd031c2a34",
        "to": "0x368ec5615143676f245510fae0fd97ee000aaa80",
        "gas": "0x1f755",
        "value": "0x0",
        "input": "0x4fb07b9c0000000000000000000000002ea4afc758a629946aae4c6a106156fd88cce88900000000000000000000000000000000000000000000000000000000000003e8",
        "nonce": "0x4f",
        "chainId": "0x14a34"
      },
      "additionalContracts": [],
      "isFixedGasLimit": false
    }
  ],
  "receipts": [
    {
      "status": "0x1",
      "cumulativeGasUsed": "0x149b97",
      "logs": [
        {
          "address": "0x2ea4afc758a629946aae4c6a106156fd88cce889",
          "topics": [
            "0x8c5be1e5ebec7d5bd14f71427d1e84f3dd0314c0f7b2291e5b200ac8c7c3b925",
            "0x0000000000000000000000003ba68c32e638fd415e6387c4c7394ddd031c2a34",
            "0x000000000000000000000000368ec5615143676f245510fae0fd97ee000aaa80"
          ],
          "data": "0x00000000000000000000000000000000000000000000000000000000000003e8",
          "blockHash": "0xe7fca438e0baca35e0b2a5a32e1a48e8b2037c60007f3f47840719d879f01fff",
          "blockNumber": "0x112c7f7",
          "transactionHash": "0x981e1b1669c93abf90a49c91c525eff8871c4b7f78a53842da2719ede5626a2a",
          "transactionIndex": "0x8",
          "logIndex": "0x7",
          "removed": false
        }
      ],
      "logsBloom": "0x00200000000000000000000000000000000000000000000000000004000000000000000000000000000000000000000000000000000000000000000000200000001000000000000000000000000000000100000000000000000000000000000000000000000000000000000000000000000000000000000002000001000000000000000000000000000000000002000000000000000000000000000000000000020000000000000000000000000000000000000000000000000002000000000000000000000000000000000000000000000000000000000000000000000000000010000000000000000000000000000000000000000100000000000000000000",
      "type": "0x2",
      "transactionHash": "0x981e1b1669c93abf90a49c91c525eff8871c4b7f78a53842da2719ede5626a2a",
      "transactionIndex": "0x8",
      "blockHash": "0xe7fca438e0baca35e0b2a5a32e1a48e8b2037c60007f3f47840719d879f01fff",
      "blockNumber": "0x112c7f7",
      "gasUsed": "0xb349",
      "effectiveGasPrice": "0xe3b",
      "from": "0x3ba68c32e638fd415e6387c4c7394ddd031c2a34",
      "to": "0x2ea4afc758a629946aae4c6a106156fd88cce889",
      "contractAddress": null,
      "l1BaseFeeScalar": "0x44d",
      "l1BlobBaseFee": "0x1",
      "l1BlobBaseFeeScalar": "0xa118b",
      "l1Fee": "0x3b249f2c",
      "l1GasPrice": "0x2192cfdd",
      "l1GasUsed": "0x640"
    },
    {
      "status": "0x1",
      "cumulativeGasUsed": "0x15f3c0",
      "logs": [
        {
          "address": "0x2ea4afc758a629946aae4c6a106156fd88cce889",
          "topics": [
            "0xddf252ad1be2c89b69c2b068fc378daa952ba7f163c4a11628f55a4df523b3ef",
            "0x000000000000000000000000368ec5615143676f245510fae0fd97ee000aaa80",
            "0x000000000000000000000000368ec5615143676f245510fae0fd97ee000aaa80"
          ],
          "data": "0x00000000000000000000000000000000000000000000000000000000000003e8",
          "blockHash": "0xe7fca438e0baca35e0b2a5a32e1a48e8b2037c60007f3f47840719d879f01fff",
          "blockNumber": "0x112c7f7",
          "transactionHash": "0x9ebd0e8ac61f26a2c141abfe6211e5b594dc3b2346800c7e04eb5e99c42d1cbf",
          "transactionIndex": "0x9",
          "logIndex": "0x8",
          "removed": false
        },
        {
          "address": "0x368ec5615143676f245510fae0fd97ee000aaa80",
          "topics": [
            "0x270ec2a3fde0260445003bf676803811db6776c19901b7481571d46e4d78aa36"
          ],
          "data": "0x0000000000000000000000002ea4afc758a629946aae4c6a106156fd88cce8890000000000000000000000000000000000000000000000000000008c0c319f00000000000000000000000000000000000000000000000000000000006738eece0000000000000000000000000000000000000000000000ac6eac0ffb40598400",
          "blockHash": "0xe7fca438e0baca35e0b2a5a32e1a48e8b2037c60007f3f47840719d879f01fff",
          "blockNumber": "0x112c7f7",
          "transactionHash": "0x9ebd0e8ac61f26a2c141abfe6211e5b594dc3b2346800c7e04eb5e99c42d1cbf",
          "transactionIndex": "0x9",
          "logIndex": "0x9",
          "removed": false
        },
        {
          "address": "0x9826d9e025f1742cfa30dfe3342ca8d9115cf872",
          "topics": [
            "0xddf252ad1be2c89b69c2b068fc378daa952ba7f163c4a11628f55a4df523b3ef",
            "0x000000000000000000000000368ec5615143676f245510fae0fd97ee000aaa80",
            "0x0000000000000000000000003ba68c32e638fd415e6387c4c7394ddd031c2a34"
          ],
          "data": "0x0000000000000000000000000000000000000000000000000000000000000000",
          "blockHash": "0xe7fca438e0baca35e0b2a5a32e1a48e8b2037c60007f3f47840719d879f01fff",
          "blockNumber": "0x112c7f7",
          "transactionHash": "0x9ebd0e8ac61f26a2c141abfe6211e5b594dc3b2346800c7e04eb5e99c42d1cbf",
          "transactionIndex": "0x9",
          "logIndex": "0xa",
          "removed": false
        }
      ],
      "logsBloom": "0x00200000000000000100000000000000000000000000000000000004000000000000000000000000000000000000000000000000000000000000000000000000001000000000000000000008000000000100000000000000000000000000000000000000000200000000000000000000000000000000000002000011000000080000000000000000000000000002000000000000000000000000100002000000000000000000000000000000000000000000000000000000000002000000000000000022000000000000000000000000000000000004000000000000000000000000000000000000000400000000000000000000000100000000000000800000",
      "type": "0x2",
      "transactionHash": "0x9ebd0e8ac61f26a2c141abfe6211e5b594dc3b2346800c7e04eb5e99c42d1cbf",
      "transactionIndex": "0x9",
      "blockHash": "0xe7fca438e0baca35e0b2a5a32e1a48e8b2037c60007f3f47840719d879f01fff",
      "blockNumber": "0x112c7f7",
      "gasUsed": "0x15829",
      "effectiveGasPrice": "0xe3b",
      "from": "0x3ba68c32e638fd415e6387c4c7394ddd031c2a34",
      "to": "0x368ec5615143676f245510fae0fd97ee000aaa80",
      "contractAddress": null,
      "l1BaseFeeScalar": "0x44d",
      "l1BlobBaseFee": "0x1",
      "l1BlobBaseFeeScalar": "0xa118b",
      "l1Fee": "0x3b249f2c",
      "l1GasPrice": "0x2192cfdd",
      "l1GasUsed": "0x640"
    }
  ],
  "libraries": [],
  "pending": [],
  "returns": {},
  "timestamp": 1731784400,
  "chain": 84532,
  "commit": "b7ae002"
}