{
  "transactions": [
    {
      "hash": "0x86002556cf229ab4f6828a32ed79c619642aab49cdd16d18c87c294675d66d10",
      "transactionType": "CALL",
      "contractName": null,
      "contractAddress": "0x4267d742e4fd1c03805083b087deb575203e9b19",
      "function": "transfer(address,uint256)",
      "arguments": [
        "0x9959E4c1a6C7766987e79a7dec6070b8661e42A3",
        "10000000000000000000000"
      ],
      "transaction": {
        "from": "0x3ba68c32e638fd415e6387c4c7394ddd031c2a34",
        "to": "0x4267d742e4fd1c03805083b087deb575203e9b19",
        "gas": "0xb8af",
        "value": "0x0",
        "input": "0xa9059cbb0000000000000000000000009959e4c1a6c7766987e79a7dec6070b8661e42a300000000000000000000000000000000000000000000021e19e0c9bab2400000",
        "nonce": "0x63",
        "chainId": "0x14a34"
      },
      "additionalContracts": [],
      "isFixedGasLimit": false
    }
  ],
  "receipts": [
    {
      "status": "0x1",
      "cumulativeGasUsed": "0x4b48a",
      "logs": [
        {
          "address": "0x4267d742e4fd1c03805083b087deb575203e9b19",
          "topics": [
            "0xddf252ad1be2c89b69c2b068fc378daa952ba7f163c4a11628f55a4df523b3ef",
            "0x0000000000000000000000003ba68c32e638fd415e6387c4c7394ddd031c2a34",
            "0x0000000000000000000000009959e4c1a6c7766987e79a7dec6070b8661e42a3"
          ],
          "data": "0x00000000000000000000000000000000000000000000021e19e0c9bab2400000",
          "blockHash": "0x97e6cd31a64839535f1aaef3e43b15dcd4a7093e115c3a347461859d22e266d9",
          "blockNumber": "0x112ddf3",
          "transactionHash": "0x86002556cf229ab4f6828a32ed79c619642aab49cdd16d18c87c294675d66d10",
          "transactionIndex": "0x4",
          "logIndex": "0x3",
          "removed": false
        }
      ],
      "logsBloom": "0x00000000000000000080000000000000000000000000000000000004000000000800000000000000000000000000000000000000000000000000000000000000001000000000000000000008000400000000000000000000000000000000000000000000000000000000000000000000000000000000000000000010000000000000000000000000000000000000000000000000000000000000020000000000000000000000000000000000000000000000000000000000000002000000000000000002000000000000000000000000000000000000000000000000000000000010000000000000000000000000000000000000000000000000000002000000",
      "type": "0x2",
      "transactionHash": "0x86002556cf229ab4f6828a32ed79c619642aab49cdd16d18c87c294675d66d10",
      "transactionIndex": "0x4",
      "blockHash": "0x97e6cd31a64839535f1aaef3e43b15dcd4a7093e115c3a347461859d22e266d9",
      "blockNumber": "0x112ddf3",
      "gasUsed": "0x85b6",
      "effectiveGasPrice": "0xf4340",
      "from": "0x3ba68c32e638fd415e6387c4c7394ddd031c2a34",
      "to": "0x4267d742e4fd1c03805083b087deb575203e9b19",
      "contractAddress": null,
      "l1BaseFeeScalar": "0x44d",
      "l1BlobBaseFee": "0x1",
      "l1BlobBaseFeeScalar": "0xa118b",
      "l1Fee": "0x1a1abf",
      "l1GasPrice": "0xed16c",
      "l1GasUsed": "0x640"
    }
  ],
  "libraries": [],
  "pending": [],
  "returns": {},
  "timestamp": 1731795654,
  "chain": 84532,
  "commit": "31f7adf"
}