{
  "transactions": [
    {
      "hash": "0x8fc22fbf1c0e15e7c9ee4a9cb1f0b54b9c4ffde2a0d044718caa74f7473c2614",
      "transactionType": "CALL",
      "contractName": null,
      "contractAddress": "0x9d07ef632ad1df1b8050c5be19070ad95f7cdcfa",
      "function": "approve(address,uint256)",
      "arguments": [
        "0x156dc33435040Be3A972AC19Ffdd6dd2a2aFEA80",
        "1000"
      ],
      "transaction": {
        "from": "0x3ba68c32e638fd415e6387c4c7394ddd031c2a34",
        "to": "0x9d07ef632ad1df1b8050c5be19070ad95f7cdcfa",
        "gas": "0xf7b3",
        "value": "0x0",
        "input": "0x095ea7b3000000000000000000000000156dc33435040be3a972ac19ffdd6dd2a2afea8000000000000000000000000000000000000000000000000000000000000003e8",
        "nonce": "0x41",
        "chainId": "0x14a34"
      },
      "additionalContracts": [],
      "isFixedGasLimit": false
    },
    {
      "hash": "0xd09a85000bb235166bd2b908d1ba21bef0a70b1382fceaca8761dc9b8961672f",
      "transactionType": "CALL",
      "contractName": null,
      "contractAddress": "0x156dc33435040be3a972ac19ffdd6dd2a2afea80",
      "function": "buyTokenFromSale(address,uint256)",
      "arguments": [
        "0x871640fd4765EC31711C09b77245E96f92dA03B5",
        "1000"
      ],
      "transaction": {
        "from": "0x3ba68c32e638fd415e6387c4c7394ddd031c2a34",
        "to": "0x156dc33435040be3a972ac19ffdd6dd2a2afea80",
        "gas": "0x43861",
        "value": "0x0",
        "input": "0x5aa69992000000000000000000000000871640fd4765ec31711c09b77245e96f92da03b500000000000000000000000000000000000000000000000000000000000003e8",
        "nonce": "0x42",
        "chainId": "0x14a34"
      },
      "additionalContracts": [],
      "isFixedGasLimit": false
    }
  ],
  "receipts": [
    {
      "status": "0x1",
      "cumulativeGasUsed": "0x496f9",
      "logs": [
        {
          "address": "0x9d07ef632ad1df1b8050c5be19070ad95f7cdcfa",
          "topics": [
            "0x8c5be1e5ebec7d5bd14f71427d1e84f3dd0314c0f7b2291e5b200ac8c7c3b925",
            "0x0000000000000000000000003ba68c32e638fd415e6387c4c7394ddd031c2a34",
            "0x000000000000000000000000156dc33435040be3a972ac19ffdd6dd2a2afea80"
          ],
          "data": "0x00000000000000000000000000000000000000000000000000000000000003e8",
          "blockHash": "0xc6f32e6c3b85b3724440d086186e50181251c6c8994f363affa8105e487f101e",
          "blockNumber": "0x112c280",
          "transactionHash": "0x8fc22fbf1c0e15e7c9ee4a9cb1f0b54b9c4ffde2a0d044718caa74f7473c2614",
          "transactionIndex": "0x3",
          "logIndex": "0x6",
          "removed": false
        }
      ],
      "logsBloom": "0x00000000000000000000000000000000000000000000000000000004000000000000000000000000000000000000020000000000000800000000000000200000001000000000000000000000000000000000000000000000000000000000000000000000000000000000000000000000000000000000000000000000000000000000000000000000000000000004000000000000000000000000000000000000020000000000000000000000000000000000000000000000400002000000000000000000000000000000000000000000000000000000000000000000080000000010000000000000000000000000000000000000000000000000002000000000",
      "type": "0x2",
      "transactionHash": "0x8fc22fbf1c0e15e7c9ee4a9cb1f0b54b9c4ffde2a0d044718caa74f7473c2614",
      "transactionIndex": "0x3",
      "blockHash": "0xc6f32e6c3b85b3724440d086186e50181251c6c8994f363affa8105e487f101e",
      "blockNumber": "0x112c280",
      "gasUsed": "0xb355",
      "effectiveGasPrice": "0x187a5",
      "from": "0x3ba68c32e638fd415e6387c4c7394ddd031c2a34",
      "to": "0x9d07ef632ad1df1b8050c5be19070ad95f7cdcfa",
      "contractAddress": null,
      "l1BaseFeeScalar": "0x44d",
      "l1BlobBaseFee": "0x1",
      "l1BlobBaseFeeScalar": "0xa118b",
      "l1Fee": "0x21b7c1e2",
      "l1GasPrice": "0x1323f3d8",
      "l1GasUsed": "0x640"
    },
    {
      "status": "0x1",
      "cumulativeGasUsed": "0x779b2",
      "logs": [
        {
          "address": "0x9d07ef632ad1df1b8050c5be19070ad95f7cdcfa",
          "topics": [
            "0xddf252ad1be2c89b69c2b068fc378daa952ba7f163c4a11628f55a4df523b3ef",
            "0x0000000000000000000000003ba68c32e638fd415e6387c4c7394ddd031c2a34",
            "0x000000000000000000000000156dc33435040be3a972ac19ffdd6dd2a2afea80"
          ],
          "data": "0x00000000000000000000000000000000000000000000000000000000000003e8",
          "blockHash": "0xc6f32e6c3b85b3724440d086186e50181251c6c8994f363affa8105e487f101e",
          "blockNumber": "0x112c280",
          "transactionHash": "0xd09a85000bb235166bd2b908d1ba21bef0a70b1382fceaca8761dc9b8961672f",
          "transactionIndex": "0x4",
          "logIndex": "0x7",
          "removed": false
        },
        {
          "address": "0x156dc33435040be3a972ac19ffdd6dd2a2afea80",
          "topics": [
            "0x270ec2a3fde0260445003bf676803811db6776c19901b7481571d46e4d78aa36"
          ],
          "data": "0x000000000000000000000000871640fd4765ec31711c09b77245e96f92da03b50000000000000000000000000000000000000000000000000000008c0c319f00000000000000000000000000000000000000000000000000000000006738e3e00000000000000000000000000000000000000000000000ac39a5c4eef7c26000",
          "blockHash": "0xc6f32e6c3b85b3724440d086186e50181251c6c8994f363affa8105e487f101e",
          "blockNumber": "0x112c280",
          "transactionHash": "0xd09a85000bb235166bd2b908d1ba21bef0a70b1382fceaca8761dc9b8961672f",
          "transactionIndex": "0x4",
          "logIndex": "0x8",
          "removed": false
        },
        {
          "address": "0x871640fd4765ec31711c09b77245e96f92da03b5",
          "topics": [
            "0xddf252ad1be2c89b69c2b068fc378daa952ba7f163c4a11628f55a4df523b3ef",
            "0x000000000000000000000000156dc33435040be3a972ac19ffdd6dd2a2afea80",
            "0x0000000000000000000000003ba68c32e638fd415e6387c4c7394ddd031c2a34"
          ],
          "data": "0x000000000000000000000000000000000000000000000000000000006317e536",
          "blockHash": "0xc6f32e6c3b85b3724440d086186e50181251c6c8994f363affa8105e487f101e",
          "blockNumber": "0x112c280",
          "transactionHash": "0xd09a85000bb235166bd2b908d1ba21bef0a70b1382fceaca8761dc9b8961672f",
          "transactionIndex": "0x4",
          "logIndex": "0x9",
          "removed": false
        }
      ],
      "logsBloom": "0x00000000008000000100000000000000000000000000000000000004000000000000000000000000000000000000020000000000000800000000001000000000001000000000000000000008000000000000000000000000000000000080000000000020000000000000000000000000000000000000000000000010000000080000000000000000000000000004000000008000000000000000000000000000000000000000000000000000000000000000000000000000400002000000000000000022000000000000000000000000000000000000000000000020080000000000000000000000000000000000000000000000000000000000002000000000",
      "type": "0x2",
      "transactionHash": "0xd09a85000bb235166bd2b908d1ba21bef0a70b1382fceaca8761dc9b8961672f",
      "transactionIndex": "0x4",
      "blockHash": "0xc6f32e6c3b85b3724440d086186e50181251c6c8994f363affa8105e487f101e",
      "blockNumber": "0x112c280",
      "gasUsed": "0x2e2b9",
      "effectiveGasPrice": "0x187a5",
      "from": "0x3ba68c32e638fd415e6387c4c7394ddd031c2a34",
      "to": "0x156dc33435040be3a972ac19ffdd6dd2a2afea80",
      "contractAddress": null,
      "l1BaseFeeScalar": "0x44d",
      "l1BlobBaseFee": "0x1",
      "l1BlobBaseFeeScalar": "0xa118b",
      "l1Fee": "0x21b7c1e2",
      "l1GasPrice": "0x1323f3d8",
      "l1GasUsed": "0x640"
    }
  ],
  "libraries": [],
  "pending": [],
  "returns": {},
  "timestamp": 1731781601,
  "chain": 84532,
  "commit": "b7ae002"
}