{
  "transactions": [
    {
      "hash": "0x2154081a4da1c404b5b6ec626f7a9a1551cbcd6fb7717cae1a94b53cf4522dc0",
      "transactionType": "CALL",
      "contractName": null,
      "contractAddress": "0x9d07ef632ad1df1b8050c5be19070ad95f7cdcfa",
      "function": "approve(address,uint256)",
      "arguments": [
        "0x156dc33435040Be3A972AC19Ffdd6dd2a2aFEA80",
        "1000"
      ],
      "transaction": {
        "from": "0x3ba68c32e638fd415e6387c4c7394ddd031c2a34",
        "to": "0x9d07ef632ad1df1b8050c5be19070ad95f7cdcfa",
        "gas": "0xf7b3",
        "value": "0x0",
        "input": "0x095ea7b3000000000000000000000000156dc33435040be3a972ac19ffdd6dd2a2afea8000000000000000000000000000000000000000000000000000000000000003e8",
        "nonce": "0x43",
        "chainId": "0x14a34"
      },
      "additionalContracts": [],
      "isFixedGasLimit": false
    },
    {
      "hash": "0x94714a836344034838b1a2aa7b4143a1891bdebe55ae399b750162288ba8d37a",
      "transactionType": "CALL",
      "contractName": null,
      "contractAddress": "0x156dc33435040be3a972ac19ffdd6dd2a2afea80",
      "function": "buyTokenFromSale(address,uint256)",
      "arguments": [
        "0x871640fd4765EC31711C09b77245E96f92dA03B5",
        "1000"
      ],
      "transaction": {
        "from": "0x3ba68c32e638fd415e6387c4c7394ddd031c2a34",
        "to": "0x156dc33435040be3a972ac19ffdd6dd2a2afea80",
        "gas": "0x21fee",
        "value": "0x0",
        "input": "0x5aa69992000000000000000000000000871640fd4765ec31711c09b77245e96f92da03b500000000000000000000000000000000000000000000000000000000000003e8",
        "nonce": "0x44",
        "chainId": "0x14a34"
      },
      "additionalContracts": [],
      "isFixedGasLimit": false
    }
  ],
  "receipts": [
    {
      "status": "0x1",
      "cumulativeGasUsed": "0xd9da6",
      "logs": [
        {
          "address": "0x9d07ef632ad1df1b8050c5be19070ad95f7cdcfa",
          "topics": [
            "0x8c5be1e5ebec7d5bd14f71427d1e84f3dd0314c0f7b2291e5b200ac8c7c3b925",
            "0x0000000000000000000000003ba68c32e638fd415e6387c4c7394ddd031c2a34",
            "0x000000000000000000000000156dc33435040be3a972ac19ffdd6dd2a2afea80"
          ],
          "data": "0x00000000000000000000000000000000000000000000000000000000000003e8",
          "blockHash": "0xee4542cbdc002c746ed918dce128beef12b6b77dc4388f886e2f0bcc40543a39",
          "blockNumber": "0x112c2ae",
          "transactionHash": "0x2154081a4da1c404b5b6ec626f7a9a1551cbcd6fb7717cae1a94b53cf4522dc0",
          "transactionIndex": "0x5",
          "logIndex": "0x4",
          "removed": false
        }
      ],
      "logsBloom": "0x00000000000000000000000000000000000000000000000000000004000000000000000000000000000000000000020000000000000800000000000000200000001000000000000000000000000000000000000000000000000000000000000000000000000000000000000000000000000000000000000000000000000000000000000000000000000000000004000000000000000000000000000000000000020000000000000000000000000000000000000000000000400002000000000000000000000000000000000000000000000000000000000000000000080000000010000000000000000000000000000000000000000000000000002000000000",
      "type": "0x2",
      "transactionHash": "0x2154081a4da1c404b5b6ec626f7a9a1551cbcd6fb7717cae1a94b53cf4522dc0",
      "transactionIndex": "0x5",
      "blockHash": "0xee4542cbdc002c746ed918dce128beef12b6b77dc4388f886e2f0bcc40543a39",
      "blockNumber": "0x112c2ae",
      "gasUsed": "0xb355",
      "effectiveGasPrice": "0x30e",
      "from": "0x3ba68c32e638fd415e6387c4c7394ddd031c2a34",
      "to": "0x9d07ef632ad1df1b8050c5be19070ad95f7cdcfa",
      "contractAddress": null,
      "l1BaseFeeScalar": "0x44d",
      "l1BlobBaseFee": "0x1",
      "l1BlobBaseFeeScalar": "0xa118b",
      "l1Fee": "0x1e7514e1",
      "l1GasPrice": "0x114a22ba",
      "l1GasUsed": "0x640"
    },
    {
      "status": "0x1",
      "cumulativeGasUsed": "0xf2773",
      "logs": [
        {
          "address": "0x9d07ef632ad1df1b8050c5be19070ad95f7cdcfa",
          "topics": [
            "0xddf252ad1be2c89b69c2b068fc378daa952ba7f163c4a11628f55a4df523b3ef",
            "0x0000000000000000000000003ba68c32e638fd415e6387c4c7394ddd031c2a34",
            "0x000000000000000000000000156dc33435040be3a972ac19ffdd6dd2a2afea80"
          ],
          "data": "0x00000000000000000000000000000000000000000000000000000000000003e8",
          "blockHash": "0xee4542cbdc002c746ed918dce128beef12b6b77dc4388f886e2f0bcc40543a39",
          "blockNumber": "0x112c2ae",
          "transactionHash": "0x94714a836344034838b1a2aa7b4143a1891bdebe55ae399b750162288ba8d37a",
          "transactionIndex": "0x6",
          "logIndex": "0x5",
          "removed": false
        },
        {
          "address": "0x156dc33435040be3a972ac19ffdd6dd2a2afea80",
          "topics": [
            "0x270ec2a3fde0260445003bf676803811db6776c19901b7481571d46e4d78aa36"
          ],
          "data": "0x000000000000000000000000871640fd4765ec31711c09b77245e96f92da03b50000000000000000000000000000000000000000000000000000008c0c319f00000000000000000000000000000000000000000000000000000000006738e43c0000000000000000000000000000000000000000000000ac361c7e6ed988ac00",
          "blockHash": "0xee4542cbdc002c746ed918dce128beef12b6b77dc4388f886e2f0bcc40543a39",
          "blockNumber": "0x112c2ae",
          "transactionHash": "0x94714a836344034838b1a2aa7b4143a1891bdebe55ae399b750162288ba8d37a",
          "transactionIndex": "0x6",
          "logIndex": "0x6",
          "removed": false
        },
        {
          "address": "0x871640fd4765ec31711c09b77245e96f92da03b5",
          "topics": [
            "0xddf252ad1be2c89b69c2b068fc378daa952ba7f163c4a11628f55a4df523b3ef",
            "0x000000000000000000000000156dc33435040be3a972ac19ffdd6dd2a2afea80",
            "0x0000000000000000000000003ba68c32e638fd415e6387c4c7394ddd031c2a34"
          ],
          "data": "0x000000000000000000000000000000000000000000000000000000006317e536",
          "blockHash": "0xee4542cbdc002c746ed918dce128beef12b6b77dc4388f886e2f0bcc40543a39",
          "blockNumber": "0x112c2ae",
          "transactionHash": "0x94714a836344034838b1a2aa7b4143a1891bdebe55ae399b750162288ba8d37a",
          "transactionIndex": "0x6",
          "logIndex": "0x7",
          "removed": false
        }
      ],
      "logsBloom": "0x00000000008000000100000000000000000000000000000000000004000000000000000000000000000000000000020000000000000800000000001000000000001000000000000000000008000000000000000000000000000000000080000000000020000000000000000000000000000000000000000000000010000000080000000000000000000000000004000000008000000000000000000000000000000000000000000000000000000000000000000000000000400002000000000000000022000000000000000000000000000000000000000000000020080000000000000000000000000000000000000000000000000000000000002000000000",
      "type": "0x2",
      "transactionHash": "0x94714a836344034838b1a2aa7b4143a1891bdebe55ae399b750162288ba8d37a",
      "transactionIndex": "0x6",
      "blockHash": "0xee4542cbdc002c746ed918dce128beef12b6b77dc4388f886e2f0bcc40543a39",
      "blockNumber": "0x112c2ae",
      "gasUsed": "0x189cd",
      "effectiveGasPrice": "0x30e",
      "from": "0x3ba68c32e638fd415e6387c4c7394ddd031c2a34",
      "to": "0x156dc33435040be3a972ac19ffdd6dd2a2afea80",
      "contractAddress": null,
      "l1BaseFeeScalar": "0x44d",
      "l1BlobBaseFee": "0x1",
      "l1BlobBaseFeeScalar": "0xa118b",
      "l1Fee": "0x1e7514e1",
      "l1GasPrice": "0x114a22ba",
      "l1GasUsed": "0x640"
    }
  ],
  "libraries": [],
  "pending": [],
  "returns": {},
  "timestamp": 1731781693,
  "chain": 84532,
  "commit": "b7ae002"
}