{
  "transactions": [
    {
      "hash": "0x6e2e33f2c7682adc67846d115a6af13b910a07aed9c2691015558cf1733a7b7c",
      "transactionType": "CALL",
      "contractName": null,
      "contractAddress": "0x79ae52ca5f25199afdd381c2b835effc6ead4a9a",
      "function": "approve(address,uint256)",
      "arguments": [
        "0xB1286e8447B288fbb4C8B4b86160f1adc5672A80",
        "1000"
      ],
      "transaction": {
        "from": "0x3ba68c32e638fd415e6387c4c7394ddd031c2a34",
        "to": "0x79ae52ca5f25199afdd381c2b835effc6ead4a9a",
        "gas": "0xf7b3",
        "value": "0x0",
        "input": "0x095ea7b3000000000000000000000000b1286e8447b288fbb4c8b4b86160f1adc5672a8000000000000000000000000000000000000000000000000000000000000003e8",
        "nonce": "0x27",
        "chainId": "0x14a34"
      },
      "additionalContracts": [],
      "isFixedGasLimit": false
    },
    {
      "hash": "0xb8b4fca893994773d18ec95d68b6a0bd62e6989567f1cd6ec4201adcdd6e1f54",
      "transactionType": "CALL",
      "contractName": null,
      "contractAddress": "0xb1286e8447b288fbb4c8b4b86160f1adc5672a80",
      "function": "buyTokenFromSale(address,uint256)",
      "arguments": [
        "0xE194dfCBDd88373Aecc96651B43E4086bf7c1789",
        "1000"
      ],
      "transaction": {
        "from": "0x3ba68c32e638fd415e6387c4c7394ddd031c2a34",
        "to": "0xb1286e8447b288fbb4c8b4b86160f1adc5672a80",
        "gas": "0x23fc7",
        "value": "0x0",
        "input": "0x5aa69992000000000000000000000000e194dfcbdd88373aecc96651b43e4086bf7c178900000000000000000000000000000000000000000000000000000000000003e8",
        "nonce": "0x28",
        "chainId": "0x14a34"
      },
      "additionalContracts": [],
      "isFixedGasLimit": false
    }
  ],
  "receipts": [
    {
      "status": "0x1",
      "cumulativeGasUsed": "0x8fe11",
      "logs": [
        {
          "address": "0x79ae52ca5f25199afdd381c2b835effc6ead4a9a",
          "topics": [
            "0x8c5be1e5ebec7d5bd14f71427d1e84f3dd0314c0f7b2291e5b200ac8c7c3b925",
            "0x0000000000000000000000003ba68c32e638fd415e6387c4c7394ddd031c2a34",
            "0x000000000000000000000000b1286e8447b288fbb4c8b4b86160f1adc5672a80"
          ],
          "data": "0x00000000000000000000000000000000000000000000000000000000000003e8",
          "blockHash": "0x29f51bb3ab1d468f8fc60aa9c7b0ba45f62cb7eaa15b61df3f9d4ed10c184600",
          "blockNumber": "0x112b590",
          "transactionHash": "0x6e2e33f2c7682adc67846d115a6af13b910a07aed9c2691015558cf1733a7b7c",
          "transactionIndex": "0x7",
          "logIndex": "0x5",
          "removed": false
        }
      ],
      "logsBloom": "0x00000000000000000000000000000000000000000000000000000004000000000000000000000000000000000000000002000400000000000000000000200000001000000000000000000000000000000000000004000000000000000000000000000000000000000000000000000000000000000000000000000000000000000000000000000000000000000000000000010000000000000000000000000000020000000000000000000000000000000000000000000000000002000000000800000000000000000000000000000000000000000000000000000000000000000010000000000000000000000000000000000000000000000000000000800000",
      "type": "0x2",
      "transactionHash": "0x6e2e33f2c7682adc67846d115a6af13b910a07aed9c2691015558cf1733a7b7c",
      "transactionIndex": "0x7",
      "blockHash": "0x29f51bb3ab1d468f8fc60aa9c7b0ba45f62cb7eaa15b61df3f9d4ed10c184600",
      "blockNumber": "0x112b590",
      "gasUsed": "0xb355",
      "effectiveGasPrice": "0x32d",
      "from": "0x3ba68c32e638fd415e6387c4c7394ddd031c2a34",
      "to": "0x79ae52ca5f25199afdd381c2b835effc6ead4a9a",
      "contractAddress": null,
      "l1BaseFeeScalar": "0x44d",
      "l1BlobBaseFee": "0x1",
      "l1BlobBaseFeeScalar": "0xa118b",
      "l1Fee": "0x461d40a0",
      "l1GasPrice": "0x27cd2ce9",
      "l1GasUsed": "0x640"
    },
    {
      "status": "0x1",
      "cumulativeGasUsed": "0xa87c3",
      "logs": [
        {
          "address": "0x79ae52ca5f25199afdd381c2b835effc6ead4a9a",
          "topics": [
            "0xddf252ad1be2c89b69c2b068fc378daa952ba7f163c4a11628f55a4df523b3ef",
            "0x0000000000000000000000003ba68c32e638fd415e6387c4c7394ddd031c2a34",
            "0x000000000000000000000000b1286e8447b288fbb4c8b4b86160f1adc5672a80"
          ],
          "data": "0x00000000000000000000000000000000000000000000000000000000000003e8",
          "blockHash": "0x29f51bb3ab1d468f8fc60aa9c7b0ba45f62cb7eaa15b61df3f9d4ed10c184600",
          "blockNumber": "0x112b590",
          "transactionHash": "0xb8b4fca893994773d18ec95d68b6a0bd62e6989567f1cd6ec4201adcdd6e1f54",
          "transactionIndex": "0x8",
          "logIndex": "0x6",
          "removed": false
        },
        {
          "address": "0xb1286e8447b288fbb4c8b4b86160f1adc5672a80",
          "topics": [
            "0x270ec2a3fde0260445003bf676803811db6776c19901b7481571d46e4d78aa36"
          ],
          "data": "0x000000000000000000000000e194dfcbdd88373aecc96651b43e4086bf7c17890000000000000000000000000000000000000000000000000000008c0c319f00000000000000000000000000000000000000000000000000000000006738ca000000000000000000000000000000000000000000000000aaf06976426fff0000",
          "blockHash": "0x29f51bb3ab1d468f8fc60aa9c7b0ba45f62cb7eaa15b61df3f9d4ed10c184600",
          "blockNumber": "0x112b590",
          "transactionHash": "0xb8b4fca893994773d18ec95d68b6a0bd62e6989567f1cd6ec4201adcdd6e1f54",
          "transactionIndex": "0x8",
          "logIndex": "0x7",
          "removed": false
        },
        {
          "address": "0xe194dfcbdd88373aecc96651b43e4086bf7c1789",
          "topics": [
            "0xddf252ad1be2c89b69c2b068fc378daa952ba7f163c4a11628f55a4df523b3ef",
            "0x000000000000000000000000b1286e8447b288fbb4c8b4b86160f1adc5672a80",
            "0x0000000000000000000000003ba68c32e638fd415e6387c4c7394ddd031c2a34"
          ],
          "data": "0x000000000000000000000000000000000000000000000000000000006317e536",
          "blockHash": "0x29f51bb3ab1d468f8fc60aa9c7b0ba45f62cb7eaa15b61df3f9d4ed10c184600",
          "blockNumber": "0x112b590",
          "transactionHash": "0xb8b4fca893994773d18ec95d68b6a0bd62e6989567f1cd6ec4201adcdd6e1f54",
          "transactionIndex": "0x8",
          "logIndex": "0x8",
          "removed": false
        }
      ],
      "logsBloom": "0x00000000400000000100000000000000000000000000000000000004000000000000000000000000000000000000000002000400000000000000000000000000001000000000000000000008000000000000000004000000000000000000000000000000000000000000000000000000000000040000000000000010000000080000000000000000000000000400000000010000000000000000000000000000000000000000000000000000000000000000000000000000000002000000000880000022000000000000000000000000000000000000000000004000000000000000000100000000000000000000000000000000000000000000000000800000",
      "type": "0x2",
      "transactionHash": "0xb8b4fca893994773d18ec95d68b6a0bd62e6989567f1cd6ec4201adcdd6e1f54",
      "transactionIndex": "0x8",
      "blockHash": "0x29f51bb3ab1d468f8fc60aa9c7b0ba45f62cb7eaa15b61df3f9d4ed10c184600",
      "blockNumber": "0x112b590",
      "gasUsed": "0x189b2",
      "effectiveGasPrice": "0x32d",
      "from": "0x3ba68c32e638fd415e6387c4c7394ddd031c2a34",
      "to": "0xb1286e8447b288fbb4c8b4b86160f1adc5672a80",
      "contractAddress": null,
      "l1BaseFeeScalar": "0x44d",
      "l1BlobBaseFee": "0x1",
      "l1BlobBaseFeeScalar": "0xa118b",
      "l1Fee": "0x461d40a0",
      "l1GasPrice": "0x27cd2ce9",
      "l1GasUsed": "0x640"
    }
  ],
  "libraries": [],
  "pending": [],
  "returns": {},
  "timestamp": 1731774978,
  "chain": 84532,
  "commit": "8d23a6e"
}