{
  "transactions": [
    {
      "hash": "0xaafc1d1b3b41aafcb04838a13ef8f740cae7315e7bd93770aa9d5be2bee6defb",
      "transactionType": "CALL",
      "contractName": null,
      "contractAddress": "0x79ae52ca5f25199afdd381c2b835effc6ead4a9a",
      "function": "mint(address,uint256)",
      "arguments": [
        "0x3BA68C32e638Fd415e6387C4C7394DDD031c2a34",
        "1000000000000000000000000"
      ],
      "transaction": {
        "from": "0x3ba68c32e638fd415e6387c4c7394ddd031c2a34",
        "to": "0x79ae52ca5f25199afdd381c2b835effc6ead4a9a",
        "gas": "0x12fcc",
        "value": "0x0",
        "input": "0x40c10f190000000000000000000000003ba68c32e638fd415e6387c4c7394ddd031c2a3400000000000000000000000000000000000000000000d3c21bcecceda1000000",
        "nonce": "0x23",
        "chainId": "0x14a34"
      },
      "additionalContracts": [],
      "isFixedGasLimit": false
    }
  ],
  "receipts": [
    {
      "status": "0x1",
      "cumulativeGasUsed": "0x1fb97f",
      "logs": [
        {
          "address": "0x79ae52ca5f25199afdd381c2b835effc6ead4a9a",
          "topics": [
            "0xddf252ad1be2c89b69c2b068fc378daa952ba7f163c4a11628f55a4df523b3ef",
            "0x0000000000000000000000000000000000000000000000000000000000000000",
            "0x0000000000000000000000003ba68c32e638fd415e6387c4c7394ddd031c2a34"
          ],
          "data": "0x00000000000000000000000000000000000000000000d3c21bcecceda1000000",
          "blockHash": "0xfbe5f722831a6cf3a5861d060daaebe58a4636626d67a4cdd12e16e38c3501f7",
          "blockNumber": "0x112af0f",
          "transactionHash": "0xaafc1d1b3b41aafcb04838a13ef8f740cae7315e7bd93770aa9d5be2bee6defb",
          "transactionIndex": "0xf",
          "logIndex": "0x15",
          "removed": false
        }
      ],
      "logsBloom": "0x00000000000000000000000000000000000000000000000000000004000000000000000000000000000000000000000002000000000000000000000000000000001000000000000000000008000000000000000004000000000000000000000000000000020000000000000000000800000000000000000000000010000000000000000000000000000000000000000000010000000000000000000000000000000000000000000000000000000000000000000000000000000002000000000000000002000000000000000000000000000000000000000000000000000020000000000000000000000000000000000000000000000000000000000000000000",
      "type": "0x2",
      "transactionHash": "0xaafc1d1b3b41aafcb04838a13ef8f740cae7315e7bd93770aa9d5be2bee6defb",
      "transactionIndex": "0xf",
      "blockHash": "0xfbe5f722831a6cf3a5861d060daaebe58a4636626d67a4cdd12e16e38c3501f7",
      "blockNumber": "0x112af0f",
      "gasUsed": "0xcfba",
      "effectiveGasPrice": "0x313",
      "from": "0x3ba68c32e638fd415e6387c4c7394ddd031c2a34",
      "to": "0x79ae52ca5f25199afdd381c2b835effc6ead4a9a",
      "contractAddress": null,
      "l1BaseFeeScalar": "0x44d",
      "l1BlobBaseFee": "0x1",
      "l1BlobBaseFeeScalar": "0xa118b",
      "l1Fee": "0x706beb91",
      "l1GasPrice": "0x3fd15fe9",
      "l1GasUsed": "0x640"
    }
  ],
  "libraries": [],
  "pending": [],
  "returns": {},
  "timestamp": 1731771647,
  "chain": 84532,
  "commit": "8d23a6e"
}