{
  "transactions": [
    {
      "hash": "0x55e14f86b8b49b7383a311c7ddcd7325d7cb87af7ff058e96572487d447e375a",
      "transactionType": "CALL",
      "contractName": null,
      "contractAddress": "0x79ae52ca5f25199afdd381c2b835effc6ead4a9a",
      "function": "mint(address,uint256)",
      "arguments": [
        "0x5b73C5498c1E3b4dbA84de0F1833c4a029d90519",
        "1000000000000000000000000"
      ],
      "transaction": {
        "from": "0x3ba68c32e638fd415e6387c4c7394ddd031c2a34",
        "to": "0x79ae52ca5f25199afdd381c2b835effc6ead4a9a",
        "gas": "0xc2a7",
        "value": "0x0",
        "input": "0x40c10f190000000000000000000000005b73c5498c1e3b4dba84de0f1833c4a029d9051900000000000000000000000000000000000000000000d3c21bcecceda1000000",
        "nonce": "0x22",
        "chainId": "0x14a34"
      },
      "additionalContracts": [],
      "isFixedGasLimit": false
    }
  ],
  "receipts": [
    {
      "status": "0x1",
      "cumulativeGasUsed": "0x74d5d",
      "logs": [
        {
          "address": "0x79ae52ca5f25199afdd381c2b835effc6ead4a9a",
          "topics": [
            "0xddf252ad1be2c89b69c2b068fc378daa952ba7f163c4a11628f55a4df523b3ef",
            "0x0000000000000000000000000000000000000000000000000000000000000000",
            "0x0000000000000000000000005b73c5498c1e3b4dba84de0f1833c4a029d90519"
          ],
          "data": "0x00000000000000000000000000000000000000000000d3c21bcecceda1000000",
          "blockHash": "0xd13fbf9519199ebd2078660bab16805e00c92b522a2950b906f2b17963290925",
          "blockNumber": "0x112aeed",
          "transactionHash": "0x55e14f86b8b49b7383a311c7ddcd7325d7cb87af7ff058e96572487d447e375a",
          "transactionIndex": "0x4",
          "logIndex": "0x3",
          "removed": false
        }
      ],
      "logsBloom": "0x00000000000000000000000000000000000000000000000000000000000000000000000000000000000000000000000002000000000000000000000000000000000000000000000000000008000000000000000004000000000000000000000000000000020000000000000000000800008000000000000000000010000000000000000000000000000000000000000000010000000000000000000000000000000000000000000000000002000000000000000000000000000000000000000000000002000000000000000000000000000000000000000000000000000020000000000000000000000000000000000000000000000000000000000000000200",
      "type": "0x2",
      "transactionHash": "0x55e14f86b8b49b7383a311c7ddcd7325d7cb87af7ff058e96572487d447e375a",
      "transactionIndex": "0x4",
      "blockHash": "0xd13fbf9519199ebd2078660bab16805e00c92b522a2950b906f2b17963290925",
      "blockNumber": "0x112aeed",
      "gasUsed": "0x8cee",
      "effectiveGasPrice": "0x424",
      "from": "0x3ba68c32e638fd415e6387c4c7394ddd031c2a34",
      "to": "0x79ae52ca5f25199afdd381c2b835effc6ead4a9a",
      "contractAddress": null,
      "l1BaseFeeScalar": "0x44d",
      "l1BlobBaseFee": "0x1",
      "l1BlobBaseFeeScalar": "0xa118b",
      "l1Fee": "0x77e8a575",
      "l1GasPrice": "0x44116f38",
      "l1GasUsed": "0x640"
    }
  ],
  "libraries": [],
  "pending": [],
  "returns": {},
  "timestamp": 1731771580,
  "chain": 84532,
  "commit": "8d23a6e"
}